:100000000C945D000C947A000C947A000C947A00A5
:100010000C947A000C947A000C947A000C94B3013E
:100020000C947A000C947A000C947A000C947A0068
:100030000C947A000C947A000C947A000C947A0058
:100040000C9469010C947A000C947A000C947A0058
:100050000C947A000C947A000C947A000C947A0038
:100060000C947A000C947A00000000080002010051
:100070000003040700000000000000000200000070
:1000800000250028002B0000000000240027002A83
:100090000004040404040404040202020202020331
:1000A000030303030301020408102040800102043B
:1000B0000810200102040810200011241FBECFEFF9
:1000C000D8E0DEBFCDBF11E0A0E0B1E0EEE8F6E0A1
:1000D00002C005900D92A230B107D9F721E0A2E04D
:1000E000B1E001C01D92AC31B207E1F70E940F02EE
:1000F0000C9445030C940000EDEAF0E02491E9E94A
:10010000F0E08491882399F090E0880F991FFC011A
:10011000E957FF4FA591B491FC01E358FF4F85913A
:1001200094918FB7F894EC91E22BEC938FBF0895E4
:100130003FB7F8948091180190911901A0911A018C
:10014000B0911B0126B5A89B05C02F3F19F0019661
:10015000A11DB11D3FBFBA2FA92F982F8827BC0121
:10016000CD01620F711D811D911D42E0660F771F49
:10017000881F991F4A95D1F708958F929F92AF9249
:10018000BF92CF92DF92EF92FF920E9498004B01B4
:100190005C0188EEC82E83E0D82EE12CF12C0E9461
:1001A0009800681979098A099B09683E734081059E
:1001B0009105A8F321E0C21AD108E108F10888EE00
:1001C000880E83E0981EA11CB11CC114D104E10467
:1001D000F10429F7FF90EF90DF90CF90BF90AF90A0
:1001E0009F908F9008959091000189130DC0ECE7C6
:1001F000F0E0E4919FEF90930001E13009F431C009
:1002000068F1E23009F433C090E0FC01E859FF4F97
:100210002491FC01EB55FF4F3491FC01EF56FF4F49
:10022000E491EE23D1F0222351F0233009F43AC0B7
:1002300078F5213009F43CC0223009F43DC0F0E0EB
:10024000EE0FFF1FE358FF4FA591B4918FB7F894BD
:10025000EC9130953E233C938FBF089510926E0031
:10026000D3CF90916F009D7F90936F00CDCF9091F1
:1002700070009D7F9093700091E09093B0009091FA
:10028000B100987F94609093B1001092B300BCCFFE
:100290002730A9F02830C9F0243089F680918000F9
:1002A0008F7D03C0809180008F7780938000C7CFBF
:1002B00084B58F7784BDC3CF84B58F7DFBCF80910C
:1002C000B0008F778093B000BACF8091B0008F7D5F
:1002D000F9CF1F920F920FB60F9211242F933F93D5
:1002E0008F939F93AF93BF938091140190911501C9
:1002F000A0911601B09117013091130123E0230F53
:100300002D3758F50196A11DB11D2093130180933F
:10031000140190931501A0931601B09317018091D9
:10032000180190911901A0911A01B0911B01019639
:10033000A11DB11D8093180190931901A0931A017A
:10034000B0931B01BF91AF919F918F913F912F91DE
:100350000F900FBE0F901F90189526E8230F02965E
:10036000A11DB11DD2CF1F920F920FB60F92112473
:100370002F933F934F935F936F937F938F939F93AD
:10038000AF93BF93EF93FF93809107019091080182
:10039000A0910901B0910A01892B8A2B8B2BD1F1F5
:1003A00090910201E0910301F0910401808189277D
:1003B00080838091070190910801A0910901B0917B
:1003C0000A01181619061A061B069CF480910701EB
:1003D00090910801A0910901B0910A010197A1092A
:1003E000B1098093070190930801A0930901B0938C
:1003F0000A01FF91EF91BF91AF919F918F917F91F2
:100400006F915F914F913F912F910F900FBE0F9081
:100410001F901895809100010E94F300EACF789414
:1004200084B5826084BD84B5816084BD85B58260F9
:1004300085BD85B5816085BD80916E0081608093AA
:100440006E00109281008091810082608093810013
:100450008091810081608093810080918000816023
:10046000809380008091B10084608093B10080917E
:10047000B00081608093B00080917A0084608093A6
:100480007A0080917A00826080937A0080917A006D
:10049000816080937A0080917A00806880937A00EE
:1004A0001092C1000E947C003FE3C32E3FE1D32E97
:1004B0004CE7E42E40E0F42E59E9452E50E0552E4D
:1004C0000DEA10E060E0662E60E0762E88248A94C3
:1004D000982C5401D8E0809100018830B1F4F701E4
:1004E000C491C7FD89C00E947C00CC2309F43BC0A5
:1004F000C23009F4B1C0C13009F467C0C23009F498
:10050000C2C0C11179C08FE333C08F3F09F074C0FE
:10051000D0930001F701C491CF3F09F46DC0C13001
:1005200009F435C040F0C23009F474C0C7FD64C09E
:100530000E947C00DDCF14BC15BC84B5826084BDF4
:1005400085B5816085BDF2018491E82FF0E0EE0F62
:10055000FF1FE358FF4F85919491F8018491809398
:1005600006010E947C0085B5887F836085BD8CE78D
:1005700087BD80920F0190921001A0921101B0925C
:10058000120180916E00826080936E0035C01092DF
:1005900080001092810080918100886080938100AA
:1005A00080918100816080938100F2018491E82F25
:1005B000F0E0EE0FFF1FE358FF4F85919491F80193
:1005C0008491809305010E947C0080918100887F46
:1005D000816080938100D0928900C09288008092CF
:1005E0000B0190920C01A0920D01B0920E0180912E
:1005F0006F00826080936F000E94BD0088E00E94BF
:10060000F3000E94BD006114710409F464CF0E94DC
:10061000000061CF1092B0001092B1008091B00044
:1006200082608093B0008091B10081608093B100BE
:10063000F2018491E82FF0E0EE0FFF1FE358FF4F27
:10064000859194919093040180930301F801849122
:10065000809302010E947C008091B100887F8360BA
:100660008093B10089EF8093B3008092070190924C
:100670000801A0920901B0920A0180917000826085
:0E06800080937000B9CF8FE3EECFF894FFCFD8
:02068E00FF006B
:00000001FF
